:020000040800F2
:10000000E80400209D010008AF130008411000081B
:10001000AD130008CD0200086D15000800000000B7
:10002000000000000000000000000000891400082B
:10003000CF02000800000000D11300088B14000854
:10004000B7010008B7010008B7010008B7010008B0
:10005000B7010008B7010008D1020008B701000885
:10006000B7010008B7010008B7010008B701000890
:10007000B7010008B7010008B7010008B701000880
:10008000B7010008B7010008B7010008B701000870
:10009000B7010008B7010008B7010008B701000860
:1000A000B7010008B7010008B7010008B701000850
:1000B000B7010008B7010008B7010008B701000840
:1000C000B7010008B7010008B7010008B701000830
:1000D000B7010008B7010008B7010008B701000820
:1000E000B7010008B7010008B7010008B701000810
:1000F000B7010008B7010008B7010008B701000800
:10010000B7010008B7010008B7010008B7010008EF
:10011000B7010008B7010008B7010008B7010008DF
:10012000B7010008B7010008B7010008B7010008CF
:10013000B7010008B7010008B7010008B7010008BF
:10014000B7010008B7010008B7010008B7010008AF
:10015000B7010008B7010008B7010008B70100089F
:10016000B7010008B7010008B7010008B70100088F
:10017000B7010008B7010008B7010008000000003F
:10018000B7010008B7010008DFF80CD000F08CF8C8
:10019000004800478D150008E80400200648804705
:1001A00006480047FEE7FEE7FEE7FEE7FEE7FEE75C
:1001B000FEE7FEE7FEE7FEE71915000889010008E3
:1001C0002DE9F05F0546002092469B46884606468C
:1001D000814640241BE0284641464746224600F01F
:1001E00053F853465A46C01A914110D31146184647
:1001F000224600F03AF82D1A67EB01084F462246D6
:100200000120002100F031F817EB00094E41201EBB
:10021000A4F10104DFDC484631462A464346BDE8E6
:10022000F09F40EA01039B0703D009E008C9121FB1
:1002300008C0042AFAD203E011F8013B00F8013BA0
:10024000521EF9D27047D2B201E000F8012B491ECC
:10025000FBD270470022F6E710B513460A46044663
:100260001946FFF7F0FF204610BD202A04DB203A94
:1002700000FA02F1002070479140C2F1200320FAF9
:1002800003F3194390407047202A04DB203A21FAF7
:1002900002F00021704721FA02F3D040C2F120029F
:1002A0009140084319467047064C074D06E0E06848
:1002B00040F0010394E8070098471034AC42F6D3AD
:1002C000FFF766FF2816000848160008FEE770478B
:1002D000012000F001B87047044910B50A680242D5
:1002E00002D00860FFF7F7FF10BD0000143C01408A
:1002F0002DE9F84FDFF87CB100224FF001084FF0F4
:10030000030A4FF00F090BF1040E00BF0B6808FA47
:1003100002F42340A3426ED14D68022D01D0122D6C
:100320000ED1D50800EB850CDCF820505607F70EEF
:1003300009FA07F6B5430E69BE402E43CCF820609B
:10034000066855000F790AFA05FC07F0030726EA4C
:100350000C06AF40374307604E68012E05D0022ED1
:1003600003D0112E01D0122E0ED18668CF6826EA56
:100370000C06AF40374387604668A6430C79C4F348
:100380000014944034434460C6688C6826EA0C0626
:10039000AC403443C4604C68E40065D5364C2568F5
:1003A00045F480452560246822F0030504F4804468
:1003B0000094324C2E19D6F8084895072F0F09FAE9
:1003C00007F5AC432E4DA84201D1002524E02D4D68
:1003D000A84201D101251FE02B4DA84201D10225E1
:1003E0001AE02A4DA84201D1032515E0284DA84264
:1003F00002D1042510E037E0264DA84201D10525A1
:100400000AE0254DA84201D1062505E0234DA8426A
:1004100001D1072500E00825BD402543C6F808584E
:10042000DBF800405D464E689C43F60300D51C4354
:100430002C60DEF8004075464E689C43B60300D53C
:100440001C432C600B4D08352C684E689C43F6020B
:1004500000D51C432C60074D0C352C684E689C431E
:10046000B60200D51C432C60521C102AFFF44EAF7C
:10047000BDE8F88F003C01404438024000300140A4
:10048000000002400004024000080240000C02404C
:10049000001002400014024000180240001C0240FC
:1004A00042694A40426170470AB18161704709045C
:1004B000FBE7000001488068704700001C00002036
:1004C0000248816802781144816070471C00002056
:1004D0000B4810B5016841F400710160016841F4F6
:1004E00080610160016841F480710160032000F0C7
:1004F0006DF8002000F006F800F024F8002010BD90
:10050000003C024070B50D4D04464FF47A712878D6
:10051000B1FBF0F00A490968B1FBF0F000F07CFD96
:1005200048B9102C07D200222146501E00F02EF8A8
:1005300000206C6070BD012070BD00001C00002018
:10054000280000200A4808B5016841F48041016094
:10055000006800F4804000900548001F016841F0E9
:1005600080510160006800F08050009008BD0000DC
:100570004438024000F01F020121914040098000F0
:1005800000F1E020C0F8001170470000F0B40E4BFD
:100590001B680C46C3F30223C3F10705042D00D9E1
:1005A0000425191D072901D2002300E0DB1E0126C6
:1005B00006FA05F1491E214099409E40761E1640DC
:1005C0003143F0BC00F0F4BE0CED00E0064900F051
:1005D000070208684FF6FF03184040EA0220034A6A
:1005E00010430860704700000CED00E00000FA05C1
:1005F0002DE9F0470E46050065D0DFF81481D8F8E4
:100600000000F7B200F00F00B04207D288F8007087
:10061000D8F8000000F00F00B04254D128683D4CDB
:10062000810712D5400703D5206840F4E0502060D0
:100630002878000703D5206840F4604020602068D7
:10064000A96820F0F000084320602878C0072DD06A
:10065000304968680839012812D0022813D00328CD
:1006600011D00968890700292DDA216821F00301DA
:1006700001432160FFF71EFF814641F2883A0EE0F8
:1006800009688903EFE709688901ECE7FFF712FFC2
:10069000A0EB0901514502D90320BDE8F08720688D
:1006A000696800F00C00B0EB810FEFD1D8F80010B2
:1006B000404601F00F01B14207D90770006800F011
:1006C0000F00B04201D00120E7E72878400705D5A8
:1006D0002068E96820F4E05008432060287800078B
:1006E00006D52068296920F4604040EAC1002060F6
:1006F00000F016F82168084AC1F30311515CC840A4
:10070000064908600020FFF7FDFE0020C5E7000055
:10071000003C02400838024018160008280000205B
:10072000154810B5006810F00C02144813D0144995
:10073000042A0FD0082A0ED10F4C241F22682368E8
:1007400002F03F025B0207D52068C0F38810A0FBCF
:10075000010106E0084610BD2168C1F38811A1FB24
:1007600000010023FFF72CFD2168C1F30141491C62
:100770004900B0FBF1F010BD083802400024F4003D
:1007800040787D012DE9F84F050076D02878DFF814
:10079000F8B2BE4CC00749D0DBF800105846C1F390
:1007A0008101012908D00068C0F3810002280AD124
:1007B000201D0068400206D52068800336D5686891
:1007C0000028E2D032E06868B0F5803F10D0B0F584
:1007D000A02F206810D020F480302060206820F402
:1007E000802020606868A0B1FFF764FE06460CE038
:1007F000206840F48030F4E740F480202060F7E780
:10080000FFF758FE801B642873D820688003F7D553
:100810000CE0FFF74FFE064605E000BFFFF74AFE7B
:10082000801B6428F0D820688003F7D42878DFF88C
:10083000608280074FF000093ED5DBF80010584673
:1008400011F00C0F09D00068C0F3810002280BD111
:100850008D48001F0068400206D42068800715D527
:10086000E868012809D111E0E868B8B10120C8F8AA
:100870000000FFF71FFE064605E002E1FFF71AFE43
:10088000801B0228C0D820688007F7D52068296916
:1008900020F0F80040EAC10020600DE0C8F80090A8
:1008A000FFF708FE064604E0FFF704FE801B02285F
:1008B0001FD820688007F7D42878000722D5724E09
:1008C000744869696C3671B101210160FFF7F2FD6E
:1008D000074604E0FFF7EEFDC01B022809D8306888
:1008E0008007F7D50EE0C0F80090FFF7E3FD07465C
:1008F00005E083E0FFF7DEFDC01B02287ED83068EC
:100900008007F7D42878400768D5DFF87CA1002756
:100910000AF1380ADAF80000C0000BD4DAF8001047
:1009200041F08051CAF80010DAF80000012700F009
:1009300080500090584E3068C00510D4306840F4A4
:1009400080703060FFF7B6FD009005E0FFF7B2FD64
:100950000099401A022851D83068C005F6D54A4E91
:10096000A868683601280FD00528306810D020F01C
:1009700001003060306820F004003060A868B8B131
:10098000FFF798FD00900FE0306840F00100F4E7B9
:1009900040F004003060F7E7FFF78CFD0099411A42
:1009A00041F28830814264D830688007F4D50EE087
:1009B000FFF780FD009007E0FFF77CFD0099411AEA
:1009C00041F28830814254D830688007F4D42FB186
:1009D000DAF8001021F08051CAF80010A869C0B3FD
:1009E000DBF80010C1F3810102294AD002284846F1
:1009F00007D0C8F86000FFF75DFD00E039E005466C
:100A00003AE04746C8F86000FFF754FD064604E0A8
:100A1000FFF750FD801B02282BD820688001F7D4F7
:100A2000D5E907010843A96A1C4A490802EB0141BC
:100A30006A6A41EA8211084395F82C1040EA016184
:100A40001148001F016001203866FFF733FD05469D
:100A500005E014E0FFF72EFD401B022809D82068AE
:100A60008001F7D50BE000BFFFF724FD401B0228F3
:100A700002D90320BDE8F88F20688001F4D400205B
:100A8000F8E70120F6E7000008380240003802408D
:100A900000004742800E4742007000400000FFFF08
:100AA00070B5040005D00025A56294F8510010B17E
:100AB00006E0012070BD84F85050204600F030F868
:100AC000022084F851002068016821F04001016093
:100AD000D4E901010843D4E90312114308436169D1
:100AE0000843218B01F400710843E1690843216A3E
:100AF0000843A16A084321680860A069042101EA4B
:100B00001040616A0843216848602068C16921F487
:100B10000061C1616565012084F85100002070BD4D
:100B200010B586B0044614216846FFF793FB1349BD
:100B30002068884220D112480021026842F4805285
:100B40000260006800F4805005900D481438026877
:100B500042F001020260006800F001000590E02010
:100B600000900220CDE901010320039005200490AC
:100B700069460448FFF7BCFB06B010BD00300140D9
:100B800044380240000002402DE9F84F0446406816
:100B90000026984617460D464FF00409B0F5827FAF
:100BA00001D1A06890B194F85000012819D04FF0FD
:100BB000010B84F850B0FFF77DFC009094F85100D1
:100BC0004FF0000A01280ED002267FE084F85190F1
:100BD00013460A462046CDF8008000F031F9BDE802
:100BE000F88F0220FBE7002D6FD0002F6DD084F826
:100BF0005190C4F854A0A563A787E787C4F830A034
:100C0000A4F834A0A4F836A0C4F840A0C4F844A0C6
:100C1000A0684FF40047B84204D12068016821F46D
:100C20008041016020680168490603D4016841F0F1
:100C300040010160E068B8B133E020688168C9070D
:100C400006D0007B05F8010BE08F401EE0870BE02B
:100C5000B8F1000F23D0B8F1FF3F05D0FFF72AFC11
:100C60000099411A41451AD2E08F0028E5D11BE0D6
:100C700020688168C90706D0C06825F8020BE08F9C
:100C8000401EE0870DE0B8F1000F08D0B8F1FF3F3B
:100C900007D0FFF70FFC0099411A414501D3032605
:100CA00014E0E08F0028E3D16068B0F5827F0AD1BC
:100CB000A068B84202D0B0F5806F04D12068016806
:100CC00021F040010160606D00B1012684F851B04F
:100CD00084F850A0304682E72DE9F84F044690F89A
:100CE00050000026994617460D4601280DD04FF0BA
:100CF000010B84F850B0FFF7DDFB804694F85100FB
:100D0000B246012804D0022694E00220BDE8F88F04
:100D1000002D7BD0002F79D0032084F85100C4F837
:100D200054A02563A786E786C4F838A0A4F83CA0A1
:100D3000A4F83EA0C4F844A0C4F840A0A068B0F550
:100D4000004F04D12068016841F4804101602068AF
:100D50000168490603D4016841F040010160E06880
:100D6000B0F5006F606804D030B3E08E012823D066
:100D70003EE010B1E08E01281AD135F8021B206840
:100D800005E020688168890706D535F8021BC16037
:100D9000E08E401EE0860BE0B9F1000F34D0B9F1CF
:100DA000FF3F05D0FFF786FBA0EB080149452BD29A
:100DB000E08E0028E5D11EE0216815F8010B0873CC
:100DC00006E020688168890706D515F8011B0173C4
:100DD000E08E401EE0860BE0B9F1000F14D0B9F1AF
:100DE000FF3F05D0FFF766FBA0EB080149450BD29A
:100DF000E08E0028E5D14B46012202212046CDF8A5
:100E0000008000F0F6FA10B1032613E011E042462C
:100E10004946204600F0DDFA18B101262020606521
:100E200008E0A06818B92068C16880680090606D0B
:100E300000B1012684F851B084F850A0304665E72F
:100E40002DE9F84F044690F8500000260A9F9A4674
:100E500093460D464FF0010801280ED0012084F87A
:100E60005000FFF727FB814694F851006168012884
:100E70000CD0B1F5827F07D102E00220BDE8F88FE7
:100E8000A16809B9042801D00226BDE055B1BBF123
:100E9000000F07D0BAF1000F04D094F851000128D8
:100EA00002D004E00126AFE0052084F851000020C4
:100EB0006065C4F838B0A4F83EA0A4F83CA025634F
:100EC000A4F836A0A4F834A0206460642068016807
:100ED000490603D4016841F040010160E068B0F5C3
:100EE000006F606804D0E8B3E08E01283BD06AE070
:100EF00010B1E08E01282ED1216835F8020BC860B0
:100F0000E08E401EE08626E0B8F1000F0DD0E08EA6
:100F100058B120688168890707D535F8021BC16080
:100F2000E08E401EE0864FF00008E08F58B1206848
:100F30008168C90707D0C0682BF8020BE08F401EFC
:100F4000E0874FF00108781C05D0FFF7B3FAA0EB5B
:100F50000900B84246D2E08E0028D5D1E08F0028A3
:100F6000D2D136E0FFE7216815F8010B0873E08E57
:100F7000401EE08627E000BFB8F1000F0DD0E08EE4
:100F800058B120688168890707D515F8011B0173DE
:100F9000E08E401EE0864FF00008E08F58B12068D8
:100FA0008168C90707D0C0680BF8010BE08F401EAD
:100FB000E0874FF00108781C05D0FFF77BFAA0EB23
:100FC0000900B8420ED2E08E0028D5D1E08F00286B
:100FD000D2D13B46012202212046CDF8009000F0FC
:100FE00008FA08B103260FE04A463946204600F0C9
:100FF000F0F918B101262020606505E0A06818B955
:101000002068C16880680090012084F851000020A9
:1010100084F85000304631E710B5401EB0F1807FB3
:1010200001D3012010BD4FF0E02460610F21601753
:1010300000F0BEF90020A06107202061002010BD53
:10104000FEE73EB5044602226946282000F0DCF89F
:101050009DF800009DF80110022200EB0120ADF880
:10106000040069462A2000F0CFF89DF800009DF8A2
:101070000110022200EB0120ADF8060069462C2089
:1010800000F0C2F89DF800009DF8011000EB01206F
:10109000ADF8080001982060BDF80800A0803EBDB2
:1010A0001CB56846FFF7CDFFBDF90000BDF9021081
:1010B00000EE100A1348B8EEC00A90ED001AD0ED09
:1010C000041A90ED052A60EE010A90ED010A10EE77
:1010D000A10A00EE901ABDF90410F8EEE00A60EEE5
:1010E000811AD0ED020A51EE820A01EE901A90EDBB
:1010F000062AF8EEE11A61EE811A90ED031A11EE5C
:10110000821A1CBD0000002038B50C4600218DF865
:101110000010014658222748FFF783F8E0780122A3
:1011200000F007008DF80000217801F0F001014384
:101130008DF800106946202000F094F8A0786178BE
:1011400000F0C00001F0380101438DF800100122C9
:101150006946242000F086F8207938B188208DF87F
:10116000000001226946232000F07CF861781248D3
:10117000102916D003DC39B108290CD107E0182951
:1011800012D0202907D112E09FED0C0A01E09FED5B
:101190000C0A80ED000A012208210A48FFF784F9B1
:1011A00038BD9FED090AF4E79FED080AF1E79FEDCE
:1011B000080AEEE790000020000000208FC2753D75
:1011C0008FC2F53D00100240EC51383E8FC2753E93
:1011D00048E13A3F38B50546FFF76CF9044601226D
:1011E0006946272000F010F89DF80000400708D15C
:1011F000FFF760F9001BA842F1D39DF800004007FB
:1012000000D0012038BD0000F8B540F08000134E3A
:1012100015460C468DF80000002208213046FFF7E5
:1012200043F90A23012269460D48FFF755FD0A23B9
:101230002A4669460A48FFF7A7FC012208213046E2
:10124000FFF732F900206A4605F0030103E0135C62
:101250002354401CC0B28142F9D8F8BD00100240AE
:1012600090000020F8B50E4E14460D468DF8000093
:10127000002208213046FFF717F90A2301226946A8
:101280000848FFF729FD0A23224629460548FFF7AB
:1012900023FD012208213046FFF706F9F8BD0000C2
:1012A00000100240900000202DE9F04186B014218A
:1012B0006846FEF7CFFF2A480024016841F010017C
:1012C0000160016801F010010591016841F0010120
:1012D0000160016801F001010591016841F0080118
:1012E00001600068DFF87C8000F0080005900022B3
:1012F00008214046FFF7D8F81B4F4FF470460022F4
:1013000031463846FFF7D0F8082000900125CDE996
:101310000154694640460394FEF7EAFFCDE90054C4
:10132000694612480294FEF7E3FF0096CDE90154A6
:10133000694638460394FEF7DBFF0D480095CDE97A
:10134000010469464046FEF7D3FF002211460620FD
:10135000FFF71CF90620FFF70DF906B0BDE8F08194
:101360003038024000100240000C024000000240F1
:10137000000011100C480B494FF4007201604FF44B
:101380008271416000218160C1600161C0E9051284
:101390001022C0E90721416281620A21C162FFF780
:1013A0007FBB0000003001402C000020FEE77047AA
:1013B0000907090E002806DA00F00F0000F1E0200E
:1013C00080F8141D704700F1E02080F80014704789
:1013D000704738B50B46009204460022802100F089
:1013E00008F8002804D0606D40F0200060650320FC
:1013F00038BD2DE9F0411D4617460E460446DDF87E
:10140000188035E0681C33D02DB1FFF753F8A0EBFE
:101410000800A8422CD32068416821F0E001416017
:101420006068B0F5827F0BD1A068B0F5004F02D0A4
:10143000B0F5806F04D12068016821F0400101609F
:10144000A06AB0F5005F0AD1206801684DF6FF720E
:10145000114001602068016841F4005101600120E1
:1014600084F85100002084F850000320BDE8F0818A
:101470002068806836EA000004D00020B842C1D15C
:101480000020F3E70120F9E77047FFF719B80000E3
:1014900030B593B030216846FEF7DCFE14210CA86D
:1014A000FEF7D8FE1A480025016841F0805101601E
:1014B000006800F0805011901648016841F48041A6
:1014C00001600068022400F4804011900120039024
:1014D00010200490009406940820CDE90750322093
:1014E000099004200A900B906846FFF74BF90CA96D
:1014F0000F2081E831004FF4C0500F904FF4A050FE
:10150000109000210CA8FFF773F813B030BD000055
:1015100040380240007000401048016841F47001FA
:1015200001600F48016841F0010101600C4A00218F
:101530000832116002680B4B1A400260031D0A4A10
:101540001A60026822F48022026005480C300160B3
:1015500002495806803908607047000088ED00E0B5
:1015600000380240FFFFF6FE10300024FEE702E0E4
:1015700008C8121F08C1002AFAD17047704700201E
:1015800001E001C1121F002AFBD170471CB5FEF714
:101590009FFFFFF77DFFFFF787FEFFF7EBFE302091
:1015A0008DF8000008208DF80100C0208DF80200A1
:1015B00007208DF8030000208DF8040069461448C8
:1015C000FFF7A2FD124D134C4FF47A774FF4805879
:1015D00005F158064FF480493846FFF7FBFD002817
:1015E000FAD0FFF75DFD05F158024146204682EC36
:1015F000030AFEF755FF96ED000AB5EEC00AF1EEBC
:1016000010FAE9D249462046FEF74AFFE4E7000017
:101610002C000020000C0240000000000000000030
:10162000010203040607080948160008000000200C
:101630002C0000006E150008741600082C00002015
:10164000BC0400007E1500088FC2753D000000003C
:1016500000000000000000000000803F0000803F0C
:101660000000803F010000001000000000000000AA
:041670000024F4005E
:040000050800018965
:00000001FF
